{
  "_format": "hh-sol-artifact-1",
  "contractName": "PlatziPunks",
  "sourceName": "contracts/PlatziPunks.sol",
  "abi": [
    {
      "inputs": [
        {
          "internalType": "uint256",
          "name": "_maxSupply",
          "type": "uint256"
        }
      ],
      "stateMutability": "nonpayable",
      "type": "constructor"
    },
    {
      "anonymous": false,
      "inputs": [
        {
          "indexed": true,
          "internalType": "address",
          "name": "owner",
          "type": "address"
        },
        {
          "indexed": true,
          "internalType": "address",
          "name": "approved",
          "type": "address"
        },
        {
          "indexed": true,
          "internalType": "uint256",
          "name": "tokenId",
          "type": "uint256"
        }
      ],
      "name": "Approval",
      "type": "event"
    },
    {
      "anonymous": false,
      "inputs": [
        {
          "indexed": true,
          "internalType": "address",
          "name": "owner",
          "type": "address"
        },
        {
          "indexed": true,
          "internalType": "address",
          "name": "operator",
          "type": "address"
        },
        {
          "indexed": false,
          "internalType": "bool",
          "name": "approved",
          "type": "bool"
        }
      ],
      "name": "ApprovalForAll",
      "type": "event"
    },
    {
      "anonymous": false,
      "inputs": [
        {
          "indexed": true,
          "internalType": "address",
          "name": "from",
          "type": "address"
        },
        {
          "indexed": true,
          "internalType": "address",
          "name": "to",
          "type": "address"
        },
        {
          "indexed": true,
          "internalType": "uint256",
          "name": "tokenId",
          "type": "uint256"
        }
      ],
      "name": "Transfer",
      "type": "event"
    },
    {
      "inputs": [
        {
          "internalType": "uint256",
          "name": "_dna",
          "type": "uint256"
        }
      ],
      "name": "_paramsURI",
      "outputs": [
        {
          "internalType": "string",
          "name": "",
          "type": "string"
        }
      ],
      "stateMutability": "view",
      "type": "function"
    },
    {
      "inputs": [
        {
          "internalType": "address",
          "name": "to",
          "type": "address"
        },
        {
          "internalType": "uint256",
          "name": "tokenId",
          "type": "uint256"
        }
      ],
      "name": "approve",
      "outputs": [],
      "stateMutability": "nonpayable",
      "type": "function"
    },
    {
      "inputs": [
        {
          "internalType": "address",
          "name": "owner",
          "type": "address"
        }
      ],
      "name": "balanceOf",
      "outputs": [
        {
          "internalType": "uint256",
          "name": "",
          "type": "uint256"
        }
      ],
      "stateMutability": "view",
      "type": "function"
    },
    {
      "inputs": [
        {
          "internalType": "uint256",
          "name": "_tokenId",
          "type": "uint256"
        },
        {
          "internalType": "address",
          "name": "_minter",
          "type": "address"
        }
      ],
      "name": "deterministicPseudoRandomDNS",
      "outputs": [
        {
          "internalType": "uint256",
          "name": "",
          "type": "uint256"
        }
      ],
      "stateMutability": "pure",
      "type": "function"
    },
    {
      "inputs": [
        {
          "internalType": "uint256",
          "name": "_dna",
          "type": "uint256"
        }
      ],
      "name": "getAccessoriesType",
      "outputs": [
        {
          "internalType": "string",
          "name": "",
          "type": "string"
        }
      ],
      "stateMutability": "view",
      "type": "function"
    },
    {
      "inputs": [
        {
          "internalType": "uint256",
          "name": "tokenId",
          "type": "uint256"
        }
      ],
      "name": "getApproved",
      "outputs": [
        {
          "internalType": "address",
          "name": "",
          "type": "address"
        }
      ],
      "stateMutability": "view",
      "type": "function"
    },
    {
      "inputs": [
        {
          "internalType": "uint256",
          "name": "_dna",
          "type": "uint256"
        }
      ],
      "name": "getClotheColor",
      "outputs": [
        {
          "internalType": "string",
          "name": "",
          "type": "string"
        }
      ],
      "stateMutability": "view",
      "type": "function"
    },
    {
      "inputs": [
        {
          "internalType": "uint256",
          "name": "_dna",
          "type": "uint256"
        }
      ],
      "name": "getClotheType",
      "outputs": [
        {
          "internalType": "string",
          "name": "",
          "type": "string"
        }
      ],
      "stateMutability": "view",
      "type": "function"
    },
    {
      "inputs": [
        {
          "internalType": "uint256",
          "name": "_dna",
          "type": "uint256"
        }
      ],
      "name": "getEyeBrowType",
      "outputs": [
        {
          "internalType": "string",
          "name": "",
          "type": "string"
        }
      ],
      "stateMutability": "view",
      "type": "function"
    },
    {
      "inputs": [
        {
          "internalType": "uint256",
          "name": "_dna",
          "type": "uint256"
        }
      ],
      "name": "getEyeType",
      "outputs": [
        {
          "internalType": "string",
          "name": "",
          "type": "string"
        }
      ],
      "stateMutability": "view",
      "type": "function"
    },
    {
      "inputs": [
        {
          "internalType": "uint256",
          "name": "_dna",
          "type": "uint256"
        }
      ],
      "name": "getFacialHairColor",
      "outputs": [
        {
          "internalType": "string",
          "name": "",
          "type": "string"
        }
      ],
      "stateMutability": "view",
      "type": "function"
    },
    {
      "inputs": [
        {
          "internalType": "uint256",
          "name": "_dna",
          "type": "uint256"
        }
      ],
      "name": "getFacialHairType",
      "outputs": [
        {
          "internalType": "string",
          "name": "",
          "type": "string"
        }
      ],
      "stateMutability": "view",
      "type": "function"
    },
    {
      "inputs": [
        {
          "internalType": "uint256",
          "name": "_dna",
          "type": "uint256"
        }
      ],
      "name": "getGraphicType",
      "outputs": [
        {
          "internalType": "string",
          "name": "",
          "type": "string"
        }
      ],
      "stateMutability": "view",
      "type": "function"
    },
    {
      "inputs": [
        {
          "internalType": "uint256",
          "name": "_dna",
          "type": "uint256"
        }
      ],
      "name": "getHairColor",
      "outputs": [
        {
          "internalType": "string",
          "name": "",
          "type": "string"
        }
      ],
      "stateMutability": "view",
      "type": "function"
    },
    {
      "inputs": [
        {
          "internalType": "uint256",
          "name": "_dna",
          "type": "uint256"
        }
      ],
      "name": "getHatColor",
      "outputs": [
        {
          "internalType": "string",
          "name": "",
          "type": "string"
        }
      ],
      "stateMutability": "view",
      "type": "function"
    },
    {
      "inputs": [
        {
          "internalType": "uint256",
          "name": "_dna",
          "type": "uint256"
        }
      ],
      "name": "getMouthType",
      "outputs": [
        {
          "internalType": "string",
          "name": "",
          "type": "string"
        }
      ],
      "stateMutability": "view",
      "type": "function"
    },
    {
      "inputs": [
        {
          "internalType": "uint256",
          "name": "_dna",
          "type": "uint256"
        }
      ],
      "name": "getSkinColor",
      "outputs": [
        {
          "internalType": "string",
          "name": "",
          "type": "string"
        }
      ],
      "stateMutability": "view",
      "type": "function"
    },
    {
      "inputs": [
        {
          "internalType": "uint256",
          "name": "_dna",
          "type": "uint256"
        }
      ],
      "name": "getTopType",
      "outputs": [
        {
          "internalType": "string",
          "name": "",
          "type": "string"
        }
      ],
      "stateMutability": "view",
      "type": "function"
    },
    {
      "inputs": [
        {
          "internalType": "uint256",
          "name": "_dna",
          "type": "uint256"
        }
      ],
      "name": "imageByDNA",
      "outputs": [
        {
          "internalType": "string",
          "name": "",
          "type": "string"
        }
      ],
      "stateMutability": "view",
      "type": "function"
    },
    {
      "inputs": [
        {
          "internalType": "address",
          "name": "owner",
          "type": "address"
        },
        {
          "internalType": "address",
          "name": "operator",
          "type": "address"
        }
      ],
      "name": "isApprovedForAll",
      "outputs": [
        {
          "internalType": "bool",
          "name": "",
          "type": "bool"
        }
      ],
      "stateMutability": "view",
      "type": "function"
    },
    {
      "inputs": [],
      "name": "maxSupply",
      "outputs": [
        {
          "internalType": "uint256",
          "name": "",
          "type": "uint256"
        }
      ],
      "stateMutability": "view",
      "type": "function"
    },
    {
      "inputs": [],
      "name": "mint",
      "outputs": [],
      "stateMutability": "nonpayable",
      "type": "function"
    },
    {
      "inputs": [],
      "name": "name",
      "outputs": [
        {
          "internalType": "string",
          "name": "",
          "type": "string"
        }
      ],
      "stateMutability": "view",
      "type": "function"
    },
    {
      "inputs": [
        {
          "internalType": "uint256",
          "name": "tokenId",
          "type": "uint256"
        }
      ],
      "name": "ownerOf",
      "outputs": [
        {
          "internalType": "address",
          "name": "",
          "type": "address"
        }
      ],
      "stateMutability": "view",
      "type": "function"
    },
    {
      "inputs": [
        {
          "internalType": "address",
          "name": "from",
          "type": "address"
        },
        {
          "internalType": "address",
          "name": "to",
          "type": "address"
        },
        {
          "internalType": "uint256",
          "name": "tokenId",
          "type": "uint256"
        }
      ],
      "name": "safeTransferFrom",
      "outputs": [],
      "stateMutability": "nonpayable",
      "type": "function"
    },
    {
      "inputs": [
        {
          "internalType": "address",
          "name": "from",
          "type": "address"
        },
        {
          "internalType": "address",
          "name": "to",
          "type": "address"
        },
        {
          "internalType": "uint256",
          "name": "tokenId",
          "type": "uint256"
        },
        {
          "internalType": "bytes",
          "name": "_data",
          "type": "bytes"
        }
      ],
      "name": "safeTransferFrom",
      "outputs": [],
      "stateMutability": "nonpayable",
      "type": "function"
    },
    {
      "inputs": [
        {
          "internalType": "address",
          "name": "operator",
          "type": "address"
        },
        {
          "internalType": "bool",
          "name": "approved",
          "type": "bool"
        }
      ],
      "name": "setApprovalForAll",
      "outputs": [],
      "stateMutability": "nonpayable",
      "type": "function"
    },
    {
      "inputs": [
        {
          "internalType": "bytes4",
          "name": "interfaceId",
          "type": "bytes4"
        }
      ],
      "name": "supportsInterface",
      "outputs": [
        {
          "internalType": "bool",
          "name": "",
          "type": "bool"
        }
      ],
      "stateMutability": "view",
      "type": "function"
    },
    {
      "inputs": [],
      "name": "symbol",
      "outputs": [
        {
          "internalType": "string",
          "name": "",
          "type": "string"
        }
      ],
      "stateMutability": "view",
      "type": "function"
    },
    {
      "inputs": [
        {
          "internalType": "uint256",
          "name": "index",
          "type": "uint256"
        }
      ],
      "name": "tokenByIndex",
      "outputs": [
        {
          "internalType": "uint256",
          "name": "",
          "type": "uint256"
        }
      ],
      "stateMutability": "view",
      "type": "function"
    },
    {
      "inputs": [
        {
          "internalType": "uint256",
          "name": "",
          "type": "uint256"
        }
      ],
      "name": "tokenDNA",
      "outputs": [
        {
          "internalType": "uint256",
          "name": "",
          "type": "uint256"
        }
      ],
      "stateMutability": "view",
      "type": "function"
    },
    {
      "inputs": [
        {
          "internalType": "address",
          "name": "owner",
          "type": "address"
        },
        {
          "internalType": "uint256",
          "name": "index",
          "type": "uint256"
        }
      ],
      "name": "tokenOfOwnerByIndex",
      "outputs": [
        {
          "internalType": "uint256",
          "name": "",
          "type": "uint256"
        }
      ],
      "stateMutability": "view",
      "type": "function"
    },
    {
      "inputs": [
        {
          "internalType": "uint256",
          "name": "tokenId",
          "type": "uint256"
        }
      ],
      "name": "tokenURI",
      "outputs": [
        {
          "internalType": "string",
          "name": "",
          "type": "string"
        }
      ],
      "stateMutability": "view",
      "type": "function"
    },
    {
      "inputs": [],
      "name": "totalSupply",
      "outputs": [
        {
          "internalType": "uint256",
          "name": "",
          "type": "uint256"
        }
      ],
      "stateMutability": "view",
      "type": "function"
    },
    {
      "inputs": [
        {
          "internalType": "address",
          "name": "from",
          "type": "address"
        },
        {
          "internalType": "address",
          "name": "to",
          "type": "address"
        },
        {
          "internalType": "uint256",
          "name": "tokenId",
          "type": "uint256"
        }
      ],
      "name": "transferFrom",
      "outputs": [],
      "stateMutability": "nonpayable",
      "type": "function"
    }
  ],
  "bytecode": "0x60806040526040518060e001604052806040518060400160405280600581526020017f426c616e6b00000000000000000000000000000000000000000000000000000081525081526020016040518060400160405280600481526020017f4b7572740000000000000000000000000000000000000000000000000000000081525081526020016040518060400160405280600e81526020017f507265736372697074696f6e303100000000000000000000000000000000000081525081526020016040518060400160405280600e81526020017f507265736372697074696f6e303200000000000000000000000000000000000081525081526020016040518060400160405280600581526020017f526f756e6400000000000000000000000000000000000000000000000000000081525081526020016040518060400160405280600a81526020017f53756e676c61737365730000000000000000000000000000000000000000000081525081526020016040518060400160405280600981526020017f5761796661726572730000000000000000000000000000000000000000000000815250815250600a906007620001bc92919062002700565b50604051806101e001604052806040518060400160405280600581526020017f426c61636b00000000000000000000000000000000000000000000000000000081525081526020016040518060400160405280600681526020017f426c75653031000000000000000000000000000000000000000000000000000081525081526020016040518060400160405280600681526020017f426c75653032000000000000000000000000000000000000000000000000000081525081526020016040518060400160405280600681526020017f426c75653033000000000000000000000000000000000000000000000000000081525081526020016040518060400160405280600681526020017f477261793031000000000000000000000000000000000000000000000000000081525081526020016040518060400160405280600681526020017f477261793032000000000000000000000000000000000000000000000000000081525081526020016040518060400160405280600781526020017f486561746865720000000000000000000000000000000000000000000000000081525081526020016040518060400160405280600a81526020017f50617374656c426c75650000000000000000000000000000000000000000000081525081526020016040518060400160405280600b81526020017f50617374656c477265656e00000000000000000000000000000000000000000081525081526020016040518060400160405280600c81526020017f50617374656c4f72616e6765000000000000000000000000000000000000000081525081526020016040518060400160405280600981526020017f50617374656c526564000000000000000000000000000000000000000000000081525081526020016040518060400160405280600c81526020017f50617374656c59656c6c6f77000000000000000000000000000000000000000081525081526020016040518060400160405280600481526020017f50696e6b0000000000000000000000000000000000000000000000000000000081525081526020016040518060400160405280600381526020017f526564000000000000000000000000000000000000000000000000000000000081525081526020016040518060400160405280600581526020017f5768697465000000000000000000000000000000000000000000000000000000815250815250600b90600f6200054e92919062002767565b506040518061012001604052806040518060400160405280600b81526020017f426c617a6572536869727400000000000000000000000000000000000000000081525081526020016040518060400160405280600d81526020017f426c617a6572537765617465720000000000000000000000000000000000000081525081526020016040518060400160405280600d81526020017f436f6c6c6172537765617465720000000000000000000000000000000000000081525081526020016040518060400160405280600c81526020017f477261706869635368697274000000000000000000000000000000000000000081525081526020016040518060400160405280600681526020017f486f6f646965000000000000000000000000000000000000000000000000000081525081526020016040518060400160405280600781526020017f4f766572616c6c0000000000000000000000000000000000000000000000000081525081526020016040518060400160405280600d81526020017f5368697274437265774e65636b0000000000000000000000000000000000000081525081526020016040518060400160405280600e81526020017f536869727453636f6f704e65636b00000000000000000000000000000000000081525081526020016040518060400160405280600a81526020017f5368697274564e65636b00000000000000000000000000000000000000000000815250815250600c9060096200077e929190620027ce565b506040518061018001604052806040518060400160405280600581526020017f436c6f736500000000000000000000000000000000000000000000000000000081525081526020016040518060400160405280600381526020017f437279000000000000000000000000000000000000000000000000000000000081525081526020016040518060400160405280600781526020017f44656661756c740000000000000000000000000000000000000000000000000081525081526020016040518060400160405280600581526020017f44697a7a7900000000000000000000000000000000000000000000000000000081525081526020016040518060400160405280600781526020017f457965526f6c6c0000000000000000000000000000000000000000000000000081525081526020016040518060400160405280600581526020017f486170707900000000000000000000000000000000000000000000000000000081525081526020016040518060400160405280600681526020017f486561727473000000000000000000000000000000000000000000000000000081525081526020016040518060400160405280600481526020017f536964650000000000000000000000000000000000000000000000000000000081525081526020016040518060400160405280600681526020017f537175696e74000000000000000000000000000000000000000000000000000081525081526020016040518060400160405280600981526020017f537572707269736564000000000000000000000000000000000000000000000081525081526020016040518060400160405280600481526020017f57696e6b0000000000000000000000000000000000000000000000000000000081525081526020016040518060400160405280600981526020017f57696e6b5761636b790000000000000000000000000000000000000000000000815250815250600d90600c62000a5f92919062002835565b506040518061018001604052806040518060400160405280600581526020017f416e67727900000000000000000000000000000000000000000000000000000081525081526020016040518060400160405280600c81526020017f416e6772794e61747572616c000000000000000000000000000000000000000081525081526020016040518060400160405280600781526020017f44656661756c740000000000000000000000000000000000000000000000000081525081526020016040518060400160405280600e81526020017f44656661756c744e61747572616c00000000000000000000000000000000000081525081526020016040518060400160405280600b81526020017f466c61744e61747572616c00000000000000000000000000000000000000000081525081526020016040518060400160405280600d81526020017f526169736564457863697465640000000000000000000000000000000000000081525081526020016040518060400160405280601481526020017f526169736564457863697465644e61747572616c00000000000000000000000081525081526020016040518060400160405280600c81526020017f536164436f6e6365726e6564000000000000000000000000000000000000000081525081526020016040518060400160405280601381526020017f536164436f6e6365726e65644e61747572616c0000000000000000000000000081525081526020016040518060400160405280600e81526020017f556e6962726f774e61747572616c00000000000000000000000000000000000081525081526020016040518060400160405280600681526020017f5570446f776e000000000000000000000000000000000000000000000000000081525081526020016040518060400160405280600d81526020017f5570446f776e4e61747572616c00000000000000000000000000000000000000815250815250600e90600c62000d4092919062002835565b506040518061010001604052806040518060400160405280600681526020017f41756275726e000000000000000000000000000000000000000000000000000081525081526020016040518060400160405280600581526020017f426c61636b00000000000000000000000000000000000000000000000000000081525081526020016040518060400160405280600681526020017f426c6f6e6465000000000000000000000000000000000000000000000000000081525081526020016040518060400160405280600c81526020017f426c6f6e6465476f6c64656e000000000000000000000000000000000000000081525081526020016040518060400160405280600581526020017f42726f776e00000000000000000000000000000000000000000000000000000081525081526020016040518060400160405280600981526020017f42726f776e4461726b000000000000000000000000000000000000000000000081525081526020016040518060400160405280600881526020017f506c6174696e756d00000000000000000000000000000000000000000000000081525081526020016040518060400160405280600381526020017f5265640000000000000000000000000000000000000000000000000000000000815250815250600f90600862000f359291906200289c565b506040518060c001604052806040518060400160405280600581526020017f426c616e6b00000000000000000000000000000000000000000000000000000081525081526020016040518060400160405280600b81526020017f42656172644d656469756d00000000000000000000000000000000000000000081525081526020016040518060400160405280600a81526020017f42656172644c696768740000000000000000000000000000000000000000000081525081526020016040518060400160405280600d81526020017f42656172644d616765737469630000000000000000000000000000000000000081525081526020016040518060400160405280600e81526020017f4d6f7573746163686546616e637900000000000000000000000000000000000081525081526020016040518060400160405280600f81526020017f4d6f757374616368654d61676e756d00000000000000000000000000000000008152508152506010906006620010b392919062002903565b506040518061014001604052806040518060400160405280600681526020017f41756275726e000000000000000000000000000000000000000000000000000081525081526020016040518060400160405280600581526020017f426c61636b00000000000000000000000000000000000000000000000000000081525081526020016040518060400160405280600681526020017f426c6f6e6465000000000000000000000000000000000000000000000000000081525081526020016040518060400160405280600c81526020017f426c6f6e6465476f6c64656e000000000000000000000000000000000000000081525081526020016040518060400160405280600581526020017f42726f776e00000000000000000000000000000000000000000000000000000081525081526020016040518060400160405280600981526020017f42726f776e4461726b000000000000000000000000000000000000000000000081525081526020016040518060400160405280600a81526020017f50617374656c50696e6b0000000000000000000000000000000000000000000081525081526020016040518060400160405280600881526020017f506c6174696e756d00000000000000000000000000000000000000000000000081525081526020016040518060400160405280600381526020017f526564000000000000000000000000000000000000000000000000000000000081525081526020016040518060400160405280600a81526020017f53696c7665724772617900000000000000000000000000000000000000000000815250815250601190600a6200131e9291906200296a565b50604051806101e001604052806040518060400160405280600581526020017f426c61636b00000000000000000000000000000000000000000000000000000081525081526020016040518060400160405280600681526020017f426c75653031000000000000000000000000000000000000000000000000000081525081526020016040518060400160405280600681526020017f426c75653032000000000000000000000000000000000000000000000000000081525081526020016040518060400160405280600681526020017f426c75653033000000000000000000000000000000000000000000000000000081525081526020016040518060400160405280600681526020017f477261793031000000000000000000000000000000000000000000000000000081525081526020016040518060400160405280600681526020017f477261793032000000000000000000000000000000000000000000000000000081525081526020016040518060400160405280600781526020017f486561746865720000000000000000000000000000000000000000000000000081525081526020016040518060400160405280600a81526020017f50617374656c426c75650000000000000000000000000000000000000000000081525081526020016040518060400160405280600b81526020017f50617374656c477265656e00000000000000000000000000000000000000000081525081526020016040518060400160405280600c81526020017f50617374656c4f72616e6765000000000000000000000000000000000000000081525081526020016040518060400160405280600981526020017f50617374656c526564000000000000000000000000000000000000000000000081525081526020016040518060400160405280600c81526020017f50617374656c59656c6c6f77000000000000000000000000000000000000000081525081526020016040518060400160405280600481526020017f50696e6b0000000000000000000000000000000000000000000000000000000081525081526020016040518060400160405280600381526020017f526564000000000000000000000000000000000000000000000000000000000081525081526020016040518060400160405280600581526020017f5768697465000000000000000000000000000000000000000000000000000000815250815250601290600f620016b092919062002767565b506040518061016001604052806040518060400160405280600381526020017f426174000000000000000000000000000000000000000000000000000000000081525081526020016040518060400160405280600681526020017f43756d626961000000000000000000000000000000000000000000000000000081525081526020016040518060400160405280600481526020017f446565720000000000000000000000000000000000000000000000000000000081525081526020016040518060400160405280600781526020017f4469616d6f6e640000000000000000000000000000000000000000000000000081525081526020016040518060400160405280600481526020017f486f6c610000000000000000000000000000000000000000000000000000000081525081526020016040518060400160405280600581526020017f50697a7a6100000000000000000000000000000000000000000000000000000081525081526020016040518060400160405280600681526020017f526573697374000000000000000000000000000000000000000000000000000081525081526020016040518060400160405280600681526020017f53656c656e61000000000000000000000000000000000000000000000000000081525081526020016040518060400160405280600481526020017f426561720000000000000000000000000000000000000000000000000000000081525081526020016040518060400160405280600c81526020017f536b756c6c4f75746c696e65000000000000000000000000000000000000000081525081526020016040518060400160405280600581526020017f536b756c6c000000000000000000000000000000000000000000000000000000815250815250601390600b62001956929190620029d1565b506040518061018001604052806040518060400160405280600981526020017f436f6e6365726e6564000000000000000000000000000000000000000000000081525081526020016040518060400160405280600781526020017f44656661756c740000000000000000000000000000000000000000000000000081525081526020016040518060400160405280600981526020017f44697362656c696566000000000000000000000000000000000000000000000081525081526020016040518060400160405280600681526020017f456174696e67000000000000000000000000000000000000000000000000000081525081526020016040518060400160405280600781526020017f4772696d6163650000000000000000000000000000000000000000000000000081525081526020016040518060400160405280600381526020017f536164000000000000000000000000000000000000000000000000000000000081525081526020016040518060400160405280600a81526020017f53637265616d4f70656e0000000000000000000000000000000000000000000081525081526020016040518060400160405280600781526020017f536572696f75730000000000000000000000000000000000000000000000000081525081526020016040518060400160405280600581526020017f536d696c6500000000000000000000000000000000000000000000000000000081525081526020016040518060400160405280600681526020017f546f6e677565000000000000000000000000000000000000000000000000000081525081526020016040518060400160405280600781526020017f5477696e6b6c650000000000000000000000000000000000000000000000000081525081526020016040518060400160405280600581526020017f566f6d6974000000000000000000000000000000000000000000000000000000815250815250601490600c62001c3792919062002835565b506040518060e001604052806040518060400160405280600681526020017f54616e6e6564000000000000000000000000000000000000000000000000000081525081526020016040518060400160405280600681526020017f59656c6c6f77000000000000000000000000000000000000000000000000000081525081526020016040518060400160405280600481526020017f50616c650000000000000000000000000000000000000000000000000000000081525081526020016040518060400160405280600581526020017f4c6967687400000000000000000000000000000000000000000000000000000081525081526020016040518060400160405280600581526020017f42726f776e00000000000000000000000000000000000000000000000000000081525081526020016040518060400160405280600981526020017f4461726b42726f776e000000000000000000000000000000000000000000000081525081526020016040518060400160405280600581526020017f426c61636b000000000000000000000000000000000000000000000000000000815250815250601590600762001df092919062002700565b506040518061046001604052806040518060400160405280600681526020017f4e6f48616972000000000000000000000000000000000000000000000000000081525081526020016040518060400160405280600881526020017f457965706174636800000000000000000000000000000000000000000000000081525081526020016040518060400160405280600381526020017f486174000000000000000000000000000000000000000000000000000000000081525081526020016040518060400160405280600581526020017f48696a616200000000000000000000000000000000000000000000000000000081525081526020016040518060400160405280600681526020017f54757262616e000000000000000000000000000000000000000000000000000081525081526020016040518060400160405280600a81526020017f57696e746572486174310000000000000000000000000000000000000000000081525081526020016040518060400160405280600a81526020017f57696e746572486174320000000000000000000000000000000000000000000081525081526020016040518060400160405280600a81526020017f57696e746572486174330000000000000000000000000000000000000000000081525081526020016040518060400160405280600a81526020017f57696e746572486174340000000000000000000000000000000000000000000081525081526020016040518060400160405280600f81526020017f4c6f6e674861697242696748616972000000000000000000000000000000000081525081526020016040518060400160405280600b81526020017f4c6f6e6748616972426f6200000000000000000000000000000000000000000081525081526020016040518060400160405280600b81526020017f4c6f6e674861697242756e00000000000000000000000000000000000000000081525081526020016040518060400160405280600d81526020017f4c6f6e67486169724375726c790000000000000000000000000000000000000081525081526020016040518060400160405280600d81526020017f4c6f6e674861697243757276790000000000000000000000000000000000000081525081526020016040518060400160405280600e81526020017f4c6f6e674861697244726561647300000000000000000000000000000000000081525081526020016040518060400160405280600d81526020017f4c6f6e674861697246726964610000000000000000000000000000000000000081525081526020016040518060400160405280600b81526020017f4c6f6e674861697246726f00000000000000000000000000000000000000000081525081526020016040518060400160405280600f81526020017f4c6f6e674861697246726f42616e64000000000000000000000000000000000081525081526020016040518060400160405280601281526020017f4c6f6e67486169724e6f74546f6f4c6f6e67000000000000000000000000000081525081526020016040518060400160405280601381526020017f4c6f6e674861697253686176656453696465730000000000000000000000000081525081526020016040518060400160405280601281526020017f4c6f6e67486169724d696157616c6c616365000000000000000000000000000081525081526020016040518060400160405280601081526020017f4c6f6e674861697253747261696768740000000000000000000000000000000081525081526020016040518060400160405280601181526020017f4c6f6e674861697253747261696768743200000000000000000000000000000081525081526020016040518060400160405280601681526020017f4c6f6e67486169725374726169676874537472616e640000000000000000000081525081526020016040518060400160405280601181526020017f53686f727448616972447265616473303100000000000000000000000000000081525081526020016040518060400160405280601181526020017f53686f727448616972447265616473303200000000000000000000000000000081525081526020016040518060400160405280601081526020017f53686f7274486169724672697a7a6c650000000000000000000000000000000081525081526020016040518060400160405280601581526020017f53686f7274486169725368616767794d756c6c6574000000000000000000000081525081526020016040518060400160405280601381526020017f53686f72744861697253686f72744375726c790000000000000000000000000081525081526020016040518060400160405280601281526020017f53686f72744861697253686f7274466c6174000000000000000000000000000081525081526020016040518060400160405280601381526020017f53686f72744861697253686f7274526f756e640000000000000000000000000081525081526020016040518060400160405280601381526020017f53686f72744861697253686f727457617665640000000000000000000000000081525081526020016040518060400160405280600e81526020017f53686f727448616972536964657300000000000000000000000000000000000081525081526020016040518060400160405280601281526020017f53686f727448616972546865436165736172000000000000000000000000000081525081526020016040518060400160405280601a81526020017f53686f727448616972546865436165736172536964655061727400000000000081525081525060169060236200261e92919062002a38565b503480156200262c57600080fd5b50604051620079a2380380620079a2833981810160405281019062002652919062002bd4565b6040518060400160405280600b81526020017f506c61747a6950756e6b730000000000000000000000000000000000000000008152506040518060400160405280600581526020017f504c504b530000000000000000000000000000000000000000000000000000008152508160009080519060200190620026d692919062002a9f565b508060019080519060200190620026ef92919062002a9f565b505050806018819055505062002c89565b82805482825590600052602060002090810192821562002754579160200282015b82811115620027535782518290805190602001906200274292919062002a9f565b509160200191906001019062002721565b5b50905062002763919062002b30565b5090565b828054828255906000526020600020908101928215620027bb579160200282015b82811115620027ba578251829080519060200190620027a992919062002a9f565b509160200191906001019062002788565b5b509050620027ca919062002b30565b5090565b82805482825590600052602060002090810192821562002822579160200282015b82811115620028215782518290805190602001906200281092919062002a9f565b5091602001919060010190620027ef565b5b50905062002831919062002b30565b5090565b82805482825590600052602060002090810192821562002889579160200282015b82811115620028885782518290805190602001906200287792919062002a9f565b509160200191906001019062002856565b5b50905062002898919062002b30565b5090565b828054828255906000526020600020908101928215620028f0579160200282015b82811115620028ef578251829080519060200190620028de92919062002a9f565b5091602001919060010190620028bd565b5b509050620028ff919062002b30565b5090565b82805482825590600052602060002090810192821562002957579160200282015b82811115620029565782518290805190602001906200294592919062002a9f565b509160200191906001019062002924565b5b50905062002966919062002b30565b5090565b828054828255906000526020600020908101928215620029be579160200282015b82811115620029bd578251829080519060200190620029ac92919062002a9f565b50916020019190600101906200298b565b5b509050620029cd919062002b30565b5090565b82805482825590600052602060002090810192821562002a25579160200282015b8281111562002a2457825182908051906020019062002a1392919062002a9f565b5091602001919060010190620029f2565b5b50905062002a34919062002b30565b5090565b82805482825590600052602060002090810192821562002a8c579160200282015b8281111562002a8b57825182908051906020019062002a7a92919062002a9f565b509160200191906001019062002a59565b5b50905062002a9b919062002b30565b5090565b82805462002aad9062002c0a565b90600052602060002090601f01602090048101928262002ad1576000855562002b1d565b82601f1062002aec57805160ff191683800117855562002b1d565b8280016001018555821562002b1d579182015b8281111562002b1c57825182559160200191906001019062002aff565b5b50905062002b2c919062002b58565b5090565b5b8082111562002b54576000818162002b4a919062002b77565b5060010162002b31565b5090565b5b8082111562002b7357600081600090555060010162002b59565b5090565b50805462002b859062002c0a565b6000825580601f1062002b99575062002bba565b601f01602090049060005260206000209081019062002bb9919062002b58565b5b50565b60008151905062002bce8162002c6f565b92915050565b60006020828403121562002be757600080fd5b600062002bf78482850162002bbd565b91505092915050565b6000819050919050565b6000600282049050600182168062002c2357607f821691505b6020821081141562002c3a5762002c3962002c40565b5b50919050565b7f4e487b7100000000000000000000000000000000000000000000000000000000600052602260045260246000fd5b62002c7a8162002c00565b811462002c8657600080fd5b50565b614d098062002c996000396000f3fe608060405234801561001057600080fd5b50600436106102115760003560e01c806373075aff11610125578063be65d751116100ad578063d5abeb011161007c578063d5abeb01146106f6578063dac1419e14610714578063e2eced2814610744578063e985e9c514610774578063fe3dc6e9146107a457610211565b8063be65d75114610636578063c0496cf514610666578063c87b56dd14610696578063cc4e5695146106c657610211565b806395d89b41116100f457806395d89b4114610580578063a22cb4651461059e578063a2ec3e9e146105ba578063b70930de146105ea578063b88d4fde1461061a57610211565b806373075aff146104c05780637ecaef06146104f057806384425a84146105205780638602dd6a1461055057610211565b806323b872dd116101a85780634f6ccce7116101775780634f6ccce7146103d0578063570ba51d1461040057806360d58aed146104305780636352211e1461046057806370a082311461049057610211565b806323b872dd146103385780632f745c5914610354578063425d784f1461038457806342842e0e146103b457610211565b8063095ea7b3116101e4578063095ea7b3146102c45780631249c58b146102e057806318160ddd146102ea57806318a3c0d11461030857610211565b806301ffc9a714610216578063039984ba1461024657806306fdde0314610276578063081812fc14610294575b600080fd5b610230600480360381019061022b91906133d2565b6107d4565b60405161023d9190613c5c565b60405180910390f35b610260600480360381019061025b9190613424565b6107e6565b60405161026d9190613c77565b60405180910390f35b61027e6108de565b60405161028b9190613c77565b60405180910390f35b6102ae60048036038101906102a99190613424565b610970565b6040516102bb9190613bf5565b60405180910390f35b6102de60048036038101906102d99190613396565b6109f5565b005b6102e8610b0d565b005b6102f2610b97565b6040516102ff9190613eb9565b60405180910390f35b610322600480360381019061031d9190613424565b610ba4565b60405161032f9190613c77565b60405180910390f35b610352600480360381019061034d9190613290565b610c9c565b005b61036e60048036038101906103699190613396565b610cfc565b60405161037b9190613eb9565b60405180910390f35b61039e60048036038101906103999190613424565b610da1565b6040516103ab9190613c77565b60405180910390f35b6103ce60048036038101906103c99190613290565b610e99565b005b6103ea60048036038101906103e59190613424565b610eb9565b6040516103f79190613eb9565b60405180910390f35b61041a60048036038101906104159190613424565b610f50565b6040516104279190613c77565b60405180910390f35b61044a60048036038101906104459190613424565b610ff4565b6040516104579190613c77565b60405180910390f35b61047a60048036038101906104759190613424565b6110ec565b6040516104879190613bf5565b60405180910390f35b6104aa60048036038101906104a5919061322b565b61119e565b6040516104b79190613eb9565b60405180910390f35b6104da60048036038101906104d59190613424565b611256565b6040516104e79190613c77565b60405180910390f35b61050a60048036038101906105059190613424565b61134e565b6040516105179190613c77565b60405180910390f35b61053a60048036038101906105359190613424565b611446565b6040516105479190613c77565b60405180910390f35b61056a60048036038101906105659190613424565b61153e565b6040516105779190613c77565b60405180910390f35b610588611636565b6040516105959190613c77565b60405180910390f35b6105b860048036038101906105b3919061335a565b6116c8565b005b6105d460048036038101906105cf9190613424565b6116de565b6040516105e19190613c77565b60405180910390f35b61060460048036038101906105ff9190613424565b6117d6565b6040516106119190613c77565b60405180910390f35b610634600480360381019061062f91906132df565b6118ce565b005b610650600480360381019061064b9190613424565b611930565b60405161065d9190613eb9565b60405180910390f35b610680600480360381019061067b9190613424565b611948565b60405161068d9190613c77565b60405180910390f35b6106b060048036038101906106ab9190613424565b611a40565b6040516106bd9190613c77565b60405180910390f35b6106e060048036038101906106db9190613424565b611b07565b6040516106ed9190613c77565b60405180910390f35b6106fe611bff565b60405161070b9190613eb9565b60405180910390f35b61072e60048036038101906107299190613424565b611c05565b60405161073b9190613c77565b60405180910390f35b61075e60048036038101906107599190613424565b611cfd565b60405161076b9190613c77565b60405180910390f35b61078e60048036038101906107899190613254565b611d43565b60405161079b9190613c5c565b60405180910390f35b6107be60048036038101906107b9919061344d565b611dd7565b6040516107cb9190613eb9565b60405180910390f35b60006107df82611e3d565b9050919050565b606060006107f5836008611eb7565b60ff169050600e80805490508261080c919061435a565b81548110610843577f4e487b7100000000000000000000000000000000000000000000000000000000600052603260045260246000fd5b906000526020600020018054610858906142ed565b80601f0160208091040260200160405190810160405280929190818152602001828054610884906142ed565b80156108d15780601f106108a6576101008083540402835291602001916108d1565b820191906000526020600020905b8154815290600101906020018083116108b457829003601f168201915b5050505050915050919050565b6060600080546108ed906142ed565b80601f0160208091040260200160405190810160405280929190818152602001828054610919906142ed565b80156109665780601f1061093b57610100808354040283529160200191610966565b820191906000526020600020905b81548152906001019060200180831161094957829003601f168201915b5050505050905090565b600061097b82611f14565b6109ba576040517f08c379a00000000000000000000000000000000000000000000000000000000081526004016109b190613e39565b60405180910390fd5b6004600083815260200190815260200160002060009054906101000a900473ffffffffffffffffffffffffffffffffffffffff169050919050565b6000610a00826110ec565b90508073ffffffffffffffffffffffffffffffffffffffff168373ffffffffffffffffffffffffffffffffffffffff161415610a71576040517f08c379a0000000000000000000000000000000000000000000000000000000008152600401610a6890613e59565b60405180910390fd5b8073ffffffffffffffffffffffffffffffffffffffff16610a90611f80565b73ffffffffffffffffffffffffffffffffffffffff161480610abf5750610abe81610ab9611f80565b611d43565b5b610afe576040517f08c379a0000000000000000000000000000000000000000000000000000000008152600401610af590613d99565b60405180910390fd5b610b088383611f88565b505050565b6000610b196017612041565b90506018548110610b5f576040517f08c379a0000000000000000000000000000000000000000000000000000000008152600401610b5690613e19565b60405180910390fd5b610b698133611dd7565b6019600083815260200190815260200160002081905550610b8a338261204f565b610b94601761206d565b50565b6000600880549050905090565b60606000610bb3836004611eb7565b60ff169050600c808054905082610bca919061435a565b81548110610c01577f4e487b7100000000000000000000000000000000000000000000000000000000600052603260045260246000fd5b906000526020600020018054610c16906142ed565b80601f0160208091040260200160405190810160405280929190818152602001828054610c42906142ed565b8015610c8f5780601f10610c6457610100808354040283529160200191610c8f565b820191906000526020600020905b815481529060010190602001808311610c7257829003601f168201915b5050505050915050919050565b610cad610ca7611f80565b82612083565b610cec576040517f08c379a0000000000000000000000000000000000000000000000000000000008152600401610ce390613e79565b60405180910390fd5b610cf7838383612161565b505050565b6000610d078361119e565b8210610d48576040517f08c379a0000000000000000000000000000000000000000000000000000000008152600401610d3f90613c99565b60405180910390fd5b600660008473ffffffffffffffffffffffffffffffffffffffff1673ffffffffffffffffffffffffffffffffffffffff168152602001908152602001600020600083815260200190815260200160002054905092915050565b60606000610db0836014611eb7565b60ff1690506014808054905082610dc7919061435a565b81548110610dfe577f4e487b7100000000000000000000000000000000000000000000000000000000600052603260045260246000fd5b906000526020600020018054610e13906142ed565b80601f0160208091040260200160405190810160405280929190818152602001828054610e3f906142ed565b8015610e8c5780601f10610e6157610100808354040283529160200191610e8c565b820191906000526020600020905b815481529060010190602001808311610e6f57829003601f168201915b5050505050915050919050565b610eb4838383604051806020016040528060008152506118ce565b505050565b6000610ec3610b97565b8210610f04576040517f08c379a0000000000000000000000000000000000000000000000000000000008152600401610efb90613e99565b60405180910390fd5b60088281548110610f3e577f4e487b7100000000000000000000000000000000000000000000000000000000600052603260045260246000fd5b90600052602060002001549050919050565b606080610f5c8361134e565b610f6584611948565b610f6e85610ba4565b610f7786611446565b610f80876107e6565b610f8988611b07565b610f9289611c05565b610f9b8a6117d6565b610fa48b6116de565b610fad8c61153e565b610fb68d610da1565b610fbf8e611256565b604051602001610fda9c9b9a99989796959493929190613a8e565b604051602081830303815290604052905080915050919050565b60606000611003836018611eb7565b60ff169050601680805490508261101a919061435a565b81548110611051577f4e487b7100000000000000000000000000000000000000000000000000000000600052603260045260246000fd5b906000526020600020018054611066906142ed565b80601f0160208091040260200160405190810160405280929190818152602001828054611092906142ed565b80156110df5780601f106110b4576101008083540402835291602001916110df565b820191906000526020600020905b8154815290600101906020018083116110c257829003601f168201915b5050505050915050919050565b6000806002600084815260200190815260200160002060009054906101000a900473ffffffffffffffffffffffffffffffffffffffff169050600073ffffffffffffffffffffffffffffffffffffffff168173ffffffffffffffffffffffffffffffffffffffff161415611195576040517f08c379a000000000000000000000000000000000000000000000000000000000815260040161118c90613dd9565b60405180910390fd5b80915050919050565b60008073ffffffffffffffffffffffffffffffffffffffff168273ffffffffffffffffffffffffffffffffffffffff16141561120f576040517f08c379a000000000000000000000000000000000000000000000000000000000815260040161120690613db9565b60405180910390fd5b600360008373ffffffffffffffffffffffffffffffffffffffff1673ffffffffffffffffffffffffffffffffffffffff168152602001908152602001600020549050919050565b60606000611265836016611eb7565b60ff169050601580805490508261127c919061435a565b815481106112b3577f4e487b7100000000000000000000000000000000000000000000000000000000600052603260045260246000fd5b9060005260206000200180546112c8906142ed565b80601f01602080910402602001604051908101604052809291908181526020018280546112f4906142ed565b80156113415780601f1061131657610100808354040283529160200191611341565b820191906000526020600020905b81548152906001019060200180831161132457829003601f168201915b5050505050915050919050565b6060600061135d836000611eb7565b60ff169050600a808054905082611374919061435a565b815481106113ab577f4e487b7100000000000000000000000000000000000000000000000000000000600052603260045260246000fd5b9060005260206000200180546113c0906142ed565b80601f01602080910402602001604051908101604052809291908181526020018280546113ec906142ed565b80156114395780601f1061140e57610100808354040283529160200191611439565b820191906000526020600020905b81548152906001019060200180831161141c57829003601f168201915b5050505050915050919050565b60606000611455836006611eb7565b60ff169050600d80805490508261146c919061435a565b815481106114a3577f4e487b7100000000000000000000000000000000000000000000000000000000600052603260045260246000fd5b9060005260206000200180546114b8906142ed565b80601f01602080910402602001604051908101604052809291908181526020018280546114e4906142ed565b80156115315780601f1061150657610100808354040283529160200191611531565b820191906000526020600020905b81548152906001019060200180831161151457829003601f168201915b5050505050915050919050565b6060600061154d836012611eb7565b60ff1690506013808054905082611564919061435a565b8154811061159b577f4e487b7100000000000000000000000000000000000000000000000000000000600052603260045260246000fd5b9060005260206000200180546115b0906142ed565b80601f01602080910402602001604051908101604052809291908181526020018280546115dc906142ed565b80156116295780601f106115fe57610100808354040283529160200191611629565b820191906000526020600020905b81548152906001019060200180831161160c57829003601f168201915b5050505050915050919050565b606060018054611645906142ed565b80601f0160208091040260200160405190810160405280929190818152602001828054611671906142ed565b80156116be5780601f10611693576101008083540402835291602001916116be565b820191906000526020600020905b8154815290600101906020018083116116a157829003601f168201915b5050505050905090565b6116da6116d3611f80565b83836123c8565b5050565b606060006116ed836010611eb7565b60ff1690506012808054905082611704919061435a565b8154811061173b577f4e487b7100000000000000000000000000000000000000000000000000000000600052603260045260246000fd5b906000526020600020018054611750906142ed565b80601f016020809104026020016040519081016040528092919081815260200182805461177c906142ed565b80156117c95780601f1061179e576101008083540402835291602001916117c9565b820191906000526020600020905b8154815290600101906020018083116117ac57829003601f168201915b5050505050915050919050565b606060006117e583600e611eb7565b60ff16905060118080549050826117fc919061435a565b81548110611833577f4e487b7100000000000000000000000000000000000000000000000000000000600052603260045260246000fd5b906000526020600020018054611848906142ed565b80601f0160208091040260200160405190810160405280929190818152602001828054611874906142ed565b80156118c15780601f10611896576101008083540402835291602001916118c1565b820191906000526020600020905b8154815290600101906020018083116118a457829003601f168201915b5050505050915050919050565b6118df6118d9611f80565b83612083565b61191e576040517f08c379a000000000000000000000000000000000000000000000000000000000815260040161191590613e79565b60405180910390fd5b61192a84848484612535565b50505050565b60196020528060005260406000206000915090505481565b60606000611957836002611eb7565b60ff169050600b80805490508261196e919061435a565b815481106119a5577f4e487b7100000000000000000000000000000000000000000000000000000000600052603260045260246000fd5b9060005260206000200180546119ba906142ed565b80601f01602080910402602001604051908101604052809291908181526020018280546119e6906142ed565b8015611a335780601f10611a0857610100808354040283529160200191611a33565b820191906000526020600020905b815481529060010190602001808311611a1657829003601f168201915b5050505050915050919050565b6060611a4b82611f14565b611a8a576040517f08c379a0000000000000000000000000000000000000000000000000000000008152600401611a8190613d79565b60405180910390fd5b6000601960008481526020019081526020016000205490506000611aad82611cfd565b90506000611adb8583604051602001611ac7929190613a45565b604051602081830303815290604052612591565b905080604051602001611aee9190613bb8565b6040516020818303038152906040529350505050919050565b60606000611b1683600a611eb7565b60ff169050600f808054905082611b2d919061435a565b81548110611b64577f4e487b7100000000000000000000000000000000000000000000000000000000600052603260045260246000fd5b906000526020600020018054611b79906142ed565b80601f0160208091040260200160405190810160405280929190818152602001828054611ba5906142ed565b8015611bf25780601f10611bc757610100808354040283529160200191611bf2565b820191906000526020600020905b815481529060010190602001808311611bd557829003601f168201915b5050505050915050919050565b60185481565b60606000611c1483600c611eb7565b60ff1690506010808054905082611c2b919061435a565b81548110611c62577f4e487b7100000000000000000000000000000000000000000000000000000000600052603260045260246000fd5b906000526020600020018054611c77906142ed565b80601f0160208091040260200160405190810160405280929190818152602001828054611ca3906142ed565b8015611cf05780601f10611cc557610100808354040283529160200191611cf0565b820191906000526020600020905b815481529060010190602001808311611cd357829003601f168201915b5050505050915050919050565b60606000611d0961273c565b90506000611d1684610f50565b90508181604051602001611d2b929190613a16565b60405160208183030381529060405292505050919050565b6000600560008473ffffffffffffffffffffffffffffffffffffffff1673ffffffffffffffffffffffffffffffffffffffff16815260200190815260200160002060008373ffffffffffffffffffffffffffffffffffffffff1673ffffffffffffffffffffffffffffffffffffffff16815260200190815260200160002060009054906101000a900460ff16905092915050565b6000808273ffffffffffffffffffffffffffffffffffffffff1684611dfc9190613f6d565b9050600081604051602001611e119190613bda565b60405160208183030381529060405290506000818051906020012090508060001c935050505092915050565b60007f780e9d63000000000000000000000000000000000000000000000000000000007bffffffffffffffffffffffffffffffffffffffffffffffffffffffff1916827bffffffffffffffffffffffffffffffffffffffffffffffffffffffff19161480611eb05750611eaf82612779565b5b9050919050565b600081600a611ec6919061407e565b6001611ed2919061419c565b600283611edf9190613fc3565b600a611eeb919061407e565b600185611ef8919061435a565b611f02919061419c565b611f0c9190613ffa565b905092915050565b60008073ffffffffffffffffffffffffffffffffffffffff166002600084815260200190815260200160002060009054906101000a900473ffffffffffffffffffffffffffffffffffffffff1673ffffffffffffffffffffffffffffffffffffffff1614159050919050565b600033905090565b816004600083815260200190815260200160002060006101000a81548173ffffffffffffffffffffffffffffffffffffffff021916908373ffffffffffffffffffffffffffffffffffffffff160217905550808273ffffffffffffffffffffffffffffffffffffffff16611ffb836110ec565b73ffffffffffffffffffffffffffffffffffffffff167f8c5be1e5ebec7d5bd14f71427d1e84f3dd0314c0f7b2291e5b200ac8c7c3b92560405160405180910390a45050565b600081600001549050919050565b61206982826040518060200160405280600081525061285b565b5050565b6001816000016000828254019250508190555050565b600061208e82611f14565b6120cd576040517f08c379a00000000000000000000000000000000000000000000000000000000081526004016120c490613d59565b60405180910390fd5b60006120d8836110ec565b90508073ffffffffffffffffffffffffffffffffffffffff168473ffffffffffffffffffffffffffffffffffffffff16148061214757508373ffffffffffffffffffffffffffffffffffffffff1661212f84610970565b73ffffffffffffffffffffffffffffffffffffffff16145b8061215857506121578185611d43565b5b91505092915050565b8273ffffffffffffffffffffffffffffffffffffffff16612181826110ec565b73ffffffffffffffffffffffffffffffffffffffff16146121d7576040517f08c379a00000000000000000000000000000000000000000000000000000000081526004016121ce90613cd9565b60405180910390fd5b600073ffffffffffffffffffffffffffffffffffffffff168273ffffffffffffffffffffffffffffffffffffffff161415612247576040517f08c379a000000000000000000000000000000000000000000000000000000000815260040161223e90613d19565b60405180910390fd5b6122528383836128b6565b61225d600082611f88565b6001600360008573ffffffffffffffffffffffffffffffffffffffff1673ffffffffffffffffffffffffffffffffffffffff16815260200190815260200160002060008282546122ad91906141f6565b925050819055506001600360008473ffffffffffffffffffffffffffffffffffffffff1673ffffffffffffffffffffffffffffffffffffffff16815260200190815260200160002060008282546123049190613f6d565b92505081905550816002600083815260200190815260200160002060006101000a81548173ffffffffffffffffffffffffffffffffffffffff021916908373ffffffffffffffffffffffffffffffffffffffff160217905550808273ffffffffffffffffffffffffffffffffffffffff168473ffffffffffffffffffffffffffffffffffffffff167fddf252ad1be2c89b69c2b068fc378daa952ba7f163c4a11628f55a4df523b3ef60405160405180910390a46123c38383836128c6565b505050565b8173ffffffffffffffffffffffffffffffffffffffff168373ffffffffffffffffffffffffffffffffffffffff161415612437576040517f08c379a000000000000000000000000000000000000000000000000000000000815260040161242e90613d39565b60405180910390fd5b80600560008573ffffffffffffffffffffffffffffffffffffffff1673ffffffffffffffffffffffffffffffffffffffff16815260200190815260200160002060008473ffffffffffffffffffffffffffffffffffffffff1673ffffffffffffffffffffffffffffffffffffffff16815260200190815260200160002060006101000a81548160ff0219169083151502179055508173ffffffffffffffffffffffffffffffffffffffff168373ffffffffffffffffffffffffffffffffffffffff167f17307eab39ab6107e8899845ad3d59bd9653f200f220920489ca2b5937696c31836040516125289190613c5c565b60405180910390a3505050565b612540848484612161565b61254c848484846128cb565b61258b576040517f08c379a000000000000000000000000000000000000000000000000000000000815260040161258290613cb9565b60405180910390fd5b50505050565b60606000825114156125b457604051806020016040528060008152509050612737565b6000604051806060016040528060408152602001614c9460409139905060006003600285516125e39190613f6d565b6125ed9190613ffa565b60046125f9919061419c565b9050600060208261260a9190613f6d565b67ffffffffffffffff811115612649577f4e487b7100000000000000000000000000000000000000000000000000000000600052604160045260246000fd5b6040519080825280601f01601f19166020018201604052801561267b5781602001600182028036833780820191505090505b509050818152600183018586518101602084015b818310156126f6576003830192508251603f8160121c1685015160f81b8252600182019150603f81600c1c1685015160f81b8252600182019150603f8160061c1685015160f81b8252600182019150603f811685015160f81b82526001820191505061268f565b60038951066001811461271057600281146127205761272b565b613d3d60f01b600283035261272b565b603d60f81b60018303525b50505050508093505050505b919050565b60606040518060400160405280601581526020017f68747470733a2f2f6176617461616172732e696f2f0000000000000000000000815250905090565b60007f80ac58cd000000000000000000000000000000000000000000000000000000007bffffffffffffffffffffffffffffffffffffffffffffffffffffffff1916827bffffffffffffffffffffffffffffffffffffffffffffffffffffffff1916148061284457507f5b5e139f000000000000000000000000000000000000000000000000000000007bffffffffffffffffffffffffffffffffffffffffffffffffffffffff1916827bffffffffffffffffffffffffffffffffffffffffffffffffffffffff1916145b80612854575061285382612a62565b5b9050919050565b6128658383612acc565b61287260008484846128cb565b6128b1576040517f08c379a00000000000000000000000000000000000000000000000000000000081526004016128a890613cb9565b60405180910390fd5b505050565b6128c1838383612ca6565b505050565b505050565b60006128ec8473ffffffffffffffffffffffffffffffffffffffff16612dba565b15612a55578373ffffffffffffffffffffffffffffffffffffffff1663150b7a02612915611f80565b8786866040518563ffffffff1660e01b81526004016129379493929190613c10565b602060405180830381600087803b15801561295157600080fd5b505af192505050801561298257506040513d601f19601f8201168201806040525081019061297f91906133fb565b60015b612a05573d80600081146129b2576040519150601f19603f3d011682016040523d82523d6000602084013e6129b7565b606091505b506000815114156129fd576040517f08c379a00000000000000000000000000000000000000000000000000000000081526004016129f490613cb9565b60405180910390fd5b805181602001fd5b63150b7a0260e01b7bffffffffffffffffffffffffffffffffffffffffffffffffffffffff1916817bffffffffffffffffffffffffffffffffffffffffffffffffffffffff191614915050612a5a565b600190505b949350505050565b60007f01ffc9a7000000000000000000000000000000000000000000000000000000007bffffffffffffffffffffffffffffffffffffffffffffffffffffffff1916827bffffffffffffffffffffffffffffffffffffffffffffffffffffffff1916149050919050565b600073ffffffffffffffffffffffffffffffffffffffff168273ffffffffffffffffffffffffffffffffffffffff161415612b3c576040517f08c379a0000000000000000000000000000000000000000000000000000000008152600401612b3390613df9565b60405180910390fd5b612b4581611f14565b15612b85576040517f08c379a0000000000000000000000000000000000000000000000000000000008152600401612b7c90613cf9565b60405180910390fd5b612b91600083836128b6565b6001600360008473ffffffffffffffffffffffffffffffffffffffff1673ffffffffffffffffffffffffffffffffffffffff1681526020019081526020016000206000828254612be19190613f6d565b92505081905550816002600083815260200190815260200160002060006101000a81548173ffffffffffffffffffffffffffffffffffffffff021916908373ffffffffffffffffffffffffffffffffffffffff160217905550808273ffffffffffffffffffffffffffffffffffffffff16600073ffffffffffffffffffffffffffffffffffffffff167fddf252ad1be2c89b69c2b068fc378daa952ba7f163c4a11628f55a4df523b3ef60405160405180910390a4612ca2600083836128c6565b5050565b612cb1838383612ddd565b600073ffffffffffffffffffffffffffffffffffffffff168373ffffffffffffffffffffffffffffffffffffffff161415612cf457612cef81612de2565b612d33565b8173ffffffffffffffffffffffffffffffffffffffff168373ffffffffffffffffffffffffffffffffffffffff1614612d3257612d318382612e2b565b5b5b600073ffffffffffffffffffffffffffffffffffffffff168273ffffffffffffffffffffffffffffffffffffffff161415612d7657612d7181612f98565b612db5565b8273ffffffffffffffffffffffffffffffffffffffff168273ffffffffffffffffffffffffffffffffffffffff1614612db457612db382826130db565b5b5b505050565b6000808273ffffffffffffffffffffffffffffffffffffffff163b119050919050565b505050565b6008805490506009600083815260200190815260200160002081905550600881908060018154018082558091505060019003906000526020600020016000909190919091505550565b60006001612e388461119e565b612e4291906141f6565b9050600060076000848152602001908152602001600020549050818114612f27576000600660008673ffffffffffffffffffffffffffffffffffffffff1673ffffffffffffffffffffffffffffffffffffffff168152602001908152602001600020600084815260200190815260200160002054905080600660008773ffffffffffffffffffffffffffffffffffffffff1673ffffffffffffffffffffffffffffffffffffffff168152602001908152602001600020600084815260200190815260200160002081905550816007600083815260200190815260200160002081905550505b6007600084815260200190815260200160002060009055600660008573ffffffffffffffffffffffffffffffffffffffff1673ffffffffffffffffffffffffffffffffffffffff16815260200190815260200160002060008381526020019081526020016000206000905550505050565b60006001600880549050612fac91906141f6565b9050600060096000848152602001908152602001600020549050600060088381548110613002577f4e487b7100000000000000000000000000000000000000000000000000000000600052603260045260246000fd5b90600052602060002001549050806008838154811061304a577f4e487b7100000000000000000000000000000000000000000000000000000000600052603260045260246000fd5b9060005260206000200181905550816009600083815260200190815260200160002081905550600960008581526020019081526020016000206000905560088054806130bf577f4e487b7100000000000000000000000000000000000000000000000000000000600052603160045260246000fd5b6001900381819060005260206000200160009055905550505050565b60006130e68361119e565b905081600660008573ffffffffffffffffffffffffffffffffffffffff1673ffffffffffffffffffffffffffffffffffffffff168152602001908152602001600020600083815260200190815260200160002081905550806007600084815260200190815260200160002081905550505050565b600061316d61316884613ef9565b613ed4565b90508281526020810184848401111561318557600080fd5b6131908482856142ab565b509392505050565b6000813590506131a781614c37565b92915050565b6000813590506131bc81614c4e565b92915050565b6000813590506131d181614c65565b92915050565b6000815190506131e681614c65565b92915050565b600082601f8301126131fd57600080fd5b813561320d84826020860161315a565b91505092915050565b60008135905061322581614c7c565b92915050565b60006020828403121561323d57600080fd5b600061324b84828501613198565b91505092915050565b6000806040838503121561326757600080fd5b600061327585828601613198565b925050602061328685828601613198565b9150509250929050565b6000806000606084860312156132a557600080fd5b60006132b386828701613198565b93505060206132c486828701613198565b92505060406132d586828701613216565b9150509250925092565b600080600080608085870312156132f557600080fd5b600061330387828801613198565b945050602061331487828801613198565b935050604061332587828801613216565b925050606085013567ffffffffffffffff81111561334257600080fd5b61334e878288016131ec565b91505092959194509250565b6000806040838503121561336d57600080fd5b600061337b85828601613198565b925050602061338c858286016131ad565b9150509250929050565b600080604083850312156133a957600080fd5b60006133b785828601613198565b92505060206133c885828601613216565b9150509250929050565b6000602082840312156133e457600080fd5b60006133f2848285016131c2565b91505092915050565b60006020828403121561340d57600080fd5b600061341b848285016131d7565b91505092915050565b60006020828403121561343657600080fd5b600061344484828501613216565b91505092915050565b6000806040838503121561346057600080fd5b600061346e85828601613216565b925050602061347f85828601613198565b9150509250929050565b6134928161422a565b82525050565b6134a18161423c565b82525050565b60006134b282613f2a565b6134bc8185613f40565b93506134cc8185602086016142ba565b6134d581614447565b840191505092915050565b60006134eb82613f35565b6134f58185613f51565b93506135058185602086016142ba565b61350e81614447565b840191505092915050565b600061352482613f35565b61352e8185613f62565b935061353e8185602086016142ba565b80840191505092915050565b6000613557601183613f62565b915061356282614465565b601182019050919050565b600061357a602b83613f51565b91506135858261448e565b604082019050919050565b600061359d603283613f51565b91506135a8826144dd565b604082019050919050565b60006135c0602583613f51565b91506135cb8261452c565b604082019050919050565b60006135e3601c83613f51565b91506135ee8261457b565b602082019050919050565b6000613606600a83613f62565b9150613611826145a4565b600a82019050919050565b6000613629600c83613f62565b9150613634826145cd565b600c82019050919050565b600061364c602483613f51565b9150613657826145f6565b604082019050919050565b600061366f601983613f51565b915061367a82614645565b602082019050919050565b6000613692607983613f62565b915061369d8261466e565b607982019050919050565b60006136b5600b83613f62565b91506136c082614709565b600b82019050919050565b60006136d8602c83613f51565b91506136e382614732565b604082019050919050565b60006136fb600d83613f62565b915061370682614781565b600d82019050919050565b600061371e600b83613f62565b9150613729826147aa565b600b82019050919050565b6000613741600183613f62565b915061374c826147d3565b600182019050919050565b6000613764601883613f62565b915061376f826147fc565b601882019050919050565b6000613787603083613f51565b915061379282614825565b604082019050919050565b60006137aa603883613f51565b91506137b582614874565b604082019050919050565b60006137cd602a83613f51565b91506137d8826148c3565b604082019050919050565b60006137f0602983613f51565b91506137fb82614912565b604082019050919050565b6000613813600b83613f62565b915061381e82614961565b600b82019050919050565b6000613836600283613f62565b91506138418261498a565b600282019050919050565b6000613859602083613f51565b9150613864826149b3565b602082019050919050565b600061387c601683613f51565b9150613887826149dc565b602082019050919050565b600061389f600d83613f62565b91506138aa82614a05565b600d82019050919050565b60006138c2602c83613f51565b91506138cd82614a2e565b604082019050919050565b60006138e5600983613f62565b91506138f082614a7d565b600982019050919050565b6000613908602183613f51565b915061391382614aa6565b604082019050919050565b600061392b600d83613f62565b915061393682614af5565b600d82019050919050565b600061394e601083613f62565b915061395982614b1e565b601082019050919050565b6000613971601d83613f62565b915061397c82614b47565b601d82019050919050565b6000613994603183613f51565b915061399f82614b70565b604082019050919050565b60006139b7602c83613f51565b91506139c282614bbf565b604082019050919050565b60006139da601083613f62565b91506139e582614c0e565b601082019050919050565b6139f981614294565b82525050565b613a10613a0b82614294565b614350565b82525050565b6000613a228285613519565b9150613a2d82613734565b9150613a398284613519565b91508190509392505050565b6000613a5082613757565b9150613a5c82856139ff565b602082019150613a6b82613685565b9150613a778284613519565b9150613a8282613829565b91508190509392505050565b6000613a9982613941565b9150613aa5828f613519565b9150613ab0826136ee565b9150613abc828e613519565b9150613ac78261361c565b9150613ad3828d613519565b9150613ade826138d8565b9150613aea828c613519565b9150613af58261391e565b9150613b01828b613519565b9150613b0c8261354a565b9150613b18828a613519565b9150613b23826139cd565b9150613b2f8289613519565b9150613b3a826136a8565b9150613b468288613519565b9150613b51826135f9565b9150613b5d8287613519565b9150613b6882613892565b9150613b748286613519565b9150613b7f82613806565b9150613b8b8285613519565b9150613b9682613711565b9150613ba28284613519565b91508190509d9c50505050505050505050505050565b6000613bc382613964565b9150613bcf8284613519565b915081905092915050565b6000613be682846139ff565b60208201915081905092915050565b6000602082019050613c0a6000830184613489565b92915050565b6000608082019050613c256000830187613489565b613c326020830186613489565b613c3f60408301856139f0565b8181036060830152613c5181846134a7565b905095945050505050565b6000602082019050613c716000830184613498565b92915050565b60006020820190508181036000830152613c9181846134e0565b905092915050565b60006020820190508181036000830152613cb28161356d565b9050919050565b60006020820190508181036000830152613cd281613590565b9050919050565b60006020820190508181036000830152613cf2816135b3565b9050919050565b60006020820190508181036000830152613d12816135d6565b9050919050565b60006020820190508181036000830152613d328161363f565b9050919050565b60006020820190508181036000830152613d5281613662565b9050919050565b60006020820190508181036000830152613d72816136cb565b9050919050565b60006020820190508181036000830152613d928161377a565b9050919050565b60006020820190508181036000830152613db28161379d565b9050919050565b60006020820190508181036000830152613dd2816137c0565b9050919050565b60006020820190508181036000830152613df2816137e3565b9050919050565b60006020820190508181036000830152613e128161384c565b9050919050565b60006020820190508181036000830152613e328161386f565b9050919050565b60006020820190508181036000830152613e52816138b5565b9050919050565b60006020820190508181036000830152613e72816138fb565b9050919050565b60006020820190508181036000830152613e9281613987565b9050919050565b60006020820190508181036000830152613eb2816139aa565b9050919050565b6000602082019050613ece60008301846139f0565b92915050565b6000613ede613eef565b9050613eea828261431f565b919050565b6000604051905090565b600067ffffffffffffffff821115613f1457613f13614418565b5b613f1d82614447565b9050602081019050919050565b600081519050919050565b600081519050919050565b600082825260208201905092915050565b600082825260208201905092915050565b600081905092915050565b6000613f7882614294565b9150613f8383614294565b9250827fffffffffffffffffffffffffffffffffffffffffffffffffffffffffffffffff03821115613fb857613fb761438b565b5b828201905092915050565b6000613fce8261429e565b9150613fd98361429e565b92508260ff03821115613fef57613fee61438b565b5b828201905092915050565b600061400582614294565b915061401083614294565b9250826140205761401f6143ba565b5b828204905092915050565b6000808291508390505b6001851115614075578086048111156140515761405061438b565b5b60018516156140605780820291505b808102905061406e85614458565b9450614035565b94509492505050565b600061408982614294565b91506140948361429e565b92506140c17fffffffffffffffffffffffffffffffffffffffffffffffffffffffffffffffff84846140c9565b905092915050565b6000826140d95760019050614195565b816140e75760009050614195565b81600181146140fd576002811461410757614136565b6001915050614195565b60ff8411156141195761411861438b565b5b8360020a9150848211156141305761412f61438b565b5b50614195565b5060208310610133831016604e8410600b841016171561416b5782820a9050838111156141665761416561438b565b5b614195565b614178848484600161402b565b9250905081840481111561418f5761418e61438b565b5b81810290505b9392505050565b60006141a782614294565b91506141b283614294565b9250817fffffffffffffffffffffffffffffffffffffffffffffffffffffffffffffffff04831182151516156141eb576141ea61438b565b5b828202905092915050565b600061420182614294565b915061420c83614294565b92508282101561421f5761421e61438b565b5b828203905092915050565b600061423582614274565b9050919050565b60008115159050919050565b60007fffffffff0000000000000000000000000000000000000000000000000000000082169050919050565b600073ffffffffffffffffffffffffffffffffffffffff82169050919050565b6000819050919050565b600060ff82169050919050565b82818337600083830152505050565b60005b838110156142d85780820151818401526020810190506142bd565b838111156142e7576000848401525b50505050565b6000600282049050600182168061430557607f821691505b60208210811415614319576143186143e9565b5b50919050565b61432882614447565b810181811067ffffffffffffffff8211171561434757614346614418565b5b80604052505050565b6000819050919050565b600061436582614294565b915061437083614294565b9250826143805761437f6143ba565b5b828206905092915050565b7f4e487b7100000000000000000000000000000000000000000000000000000000600052601160045260246000fd5b7f4e487b7100000000000000000000000000000000000000000000000000000000600052601260045260246000fd5b7f4e487b7100000000000000000000000000000000000000000000000000000000600052602260045260246000fd5b7f4e487b7100000000000000000000000000000000000000000000000000000000600052604160045260246000fd5b6000601f19601f8301169050919050565b60008160011c9050919050565b7f2666616369616c48616972436f6c6f723d000000000000000000000000000000600082015250565b7f455243373231456e756d657261626c653a206f776e657220696e646578206f7560008201527f74206f6620626f756e6473000000000000000000000000000000000000000000602082015250565b7f4552433732313a207472616e7366657220746f206e6f6e20455243373231526560008201527f63656976657220696d706c656d656e7465720000000000000000000000000000602082015250565b7f4552433732313a207472616e736665722066726f6d20696e636f72726563742060008201527f6f776e6572000000000000000000000000000000000000000000000000000000602082015250565b7f4552433732313a20746f6b656e20616c7265616479206d696e74656400000000600082015250565b7f26686174436f6c6f723d00000000000000000000000000000000000000000000600082015250565b7f26636c6f746865547970653d0000000000000000000000000000000000000000600082015250565b7f4552433732313a207472616e7366657220746f20746865207a65726f2061646460008201527f7265737300000000000000000000000000000000000000000000000000000000602082015250565b7f4552433732313a20617070726f766520746f2063616c6c657200000000000000600082015250565b7f222c2220226465736372697074696f6e223a2022506c61747a692050756e6b7360008201527f206172652072616e646f6d697a6564204176617461616172732073746f72656460208201527f206f6e20636861696e20746f207465616368204441707020646576656c6f706d60408201527f656e74206f6e20506c61747a69222c2022696d616765223a2000000000000000606082015250565b7f2668616972436f6c6f723d000000000000000000000000000000000000000000600082015250565b7f4552433732313a206f70657261746f7220717565727920666f72206e6f6e657860008201527f697374656e7420746f6b656e0000000000000000000000000000000000000000602082015250565b7f26636c6f746865436f6c6f723d00000000000000000000000000000000000000600082015250565b7f26736b696e436f6c6f723d000000000000000000000000000000000000000000600082015250565b7f3f00000000000000000000000000000000000000000000000000000000000000600082015250565b7f7b20226e616d65223a2022506c61747a6950756e6b7320230000000000000000600082015250565b7f455243373231204d657461646174613a2055524920717565727920666f72206e60008201527f6f6e6578697374696e6720746f6b656e00000000000000000000000000000000602082015250565b7f4552433732313a20617070726f76652063616c6c6572206973206e6f74206f7760008201527f6e6572206e6f7220617070726f76656420666f7220616c6c0000000000000000602082015250565b7f4552433732313a2062616c616e636520717565727920666f7220746865207a6560008201527f726f206164647265737300000000000000000000000000000000000000000000602082015250565b7f4552433732313a206f776e657220717565727920666f72206e6f6e657869737460008201527f656e7420746f6b656e0000000000000000000000000000000000000000000000602082015250565b7f266d6f757468547970653d000000000000000000000000000000000000000000600082015250565b7f227d000000000000000000000000000000000000000000000000000000000000600082015250565b7f4552433732313a206d696e7420746f20746865207a65726f2061646472657373600082015250565b7f4e6f20506c61747a6950756e6b73206c656674203a5300000000000000000000600082015250565b7f2667726170686963547970653d00000000000000000000000000000000000000600082015250565b7f4552433732313a20617070726f76656420717565727920666f72206e6f6e657860008201527f697374656e7420746f6b656e0000000000000000000000000000000000000000602082015250565b7f26657965547970653d0000000000000000000000000000000000000000000000600082015250565b7f4552433732313a20617070726f76616c20746f2063757272656e74206f776e6560008201527f7200000000000000000000000000000000000000000000000000000000000000602082015250565b7f2665796562726f77547970653d00000000000000000000000000000000000000600082015250565b7f6163636573736f72696573547970653d00000000000000000000000000000000600082015250565b7f646174613a6170706c69636174696f6e2f6a736f6e3b6261736536342c000000600082015250565b7f4552433732313a207472616e736665722063616c6c6572206973206e6f74206f60008201527f776e6572206e6f7220617070726f766564000000000000000000000000000000602082015250565b7f455243373231456e756d657261626c653a20676c6f62616c20696e646578206f60008201527f7574206f6620626f756e64730000000000000000000000000000000000000000602082015250565b7f2666616369616c48616972547970653d00000000000000000000000000000000600082015250565b614c408161422a565b8114614c4b57600080fd5b50565b614c578161423c565b8114614c6257600080fd5b50565b614c6e81614248565b8114614c7957600080fd5b50565b614c8581614294565b8114614c9057600080fd5b5056fe4142434445464748494a4b4c4d4e4f505152535455565758595a6162636465666768696a6b6c6d6e6f707172737475767778797a303132333435363738392b2fa26469706673582212200c0a224e8ba45b1c38766142d512d7de8381b835347b553742f3537079fedc8664736f6c63430008040033",
  "linkReferences": {},
  "deployedLinkReferences": {}
}